:1000000000430020314000006BD600000540000096
:100010000540000005400000054000000000000011
:100020000000000000000000000000000139000096
:100030000540000000000000AD3800000540000051
:10004000B1390000B1390000B1390000B139000008
:10005000B1390000B1390000B1390000B1390000F8
:10006000B1390000B1390000B1390000B1390000E8
:10007000B1390000B1390000B1390000B1390000D8
:10008000B1390000B1390000B1390000B1390000C8
:10009000B1390000B1390000B1390000B1390000B8
:1000A000B1390000B1390000B1390000B1390000A8
:1000B000B1390000B1390000B1390000B139000098
:1000C000B1390000B1390000B1390000B139000088
:1000D000B1390000B1390000B1390000B139000078
:1000E000B1390000B1390000B1390000B139000068
:1000F000B1390000B1390000B1390000B139000058
:1001000053B94AB9002908BF00281CBF4FF0FF317E
:100110004FF0FF3000F00CB8ADF1080C6DE904CEE3
:1001200000F008F8DDF804E0DDE9022304B07047D0
:10013000704700BF2DE9F04786468C460846089E6A
:10014000154674461946002B40F0C2808542B2FA2B
:1001500082F245D94AB1C2F1200300FA02FC2EFA1C
:1001600003F3954043EA0C0C94404FEA154EA8B2B5
:10017000BCFBFEF8230C0EFB18CC08FB00F943EA8D
:100180000C43994528D9EB1808F1FF3704D299455B
:1001900002D9A8F102072B44A3EB0903A4B2B3FBD5
:1001A000FEFC0EFB1C330CFB00F044EA0344A042AF
:1001B00014D92C190CF1FF3304D2A04202D9ACF1AE
:1001C00002032C44241A43EA07401EB1D440002302
:1001D00034607360BDE8F0874746DDE76346F1E7CA
:1001E00092BB431B01214FEA154EAFB2B3FBFEFC9D
:1001F000200C0EFB1C330CFB07F840EA0343984528
:1002000062D9EB180CF1FF3004D2984502D9ACF159
:1002100002002B44A3EB0803A4B2B3FBFEFC0EFBCD
:100220001C330CFB07F744EA0344A7424ED92C19B0
:100230000CF1FF3304D2A74202D9ACF102032C44E3
:10024000E41B43EA0040C0E7C2F1200320FA03F1B7
:10025000954090402EFA03F303434FEA154EAFB298
:10026000B1FBFEFC0EFB1C10190C0CFB07F841EA5D
:100270000041884504FA02F422D969180CF1FF30D4
:1002800004D2884502D9ACF102002944A1EB08014F
:100290009BB2B1FBFEFC0EFB1C110CFB07F743EA03
:1002A00001439F420ED9EB180CF1FF3104D29F425B
:1002B00002D9ACF102012B44DB1B41EA004192E779
:1002C0006046E3E76146F7E76046A3E76346B7E7C2
:1002D000834206D916B9002108467BE7C6E900E04B
:1002E000F9E7B3FA83F78FB9834201D3724508D88F
:1002F000BEEB020460EB030301209C461EB9002103
:1003000068E73846FAE7C6E9004CF8E7C7F1200C81
:10031000BB4022FA0CF41C432EFA0CF120FA0CF329
:10032000B84001434FEA14490EFA07F5B3FBF9F858
:100330001FFA84FE09FB18300B0C08FB0EFA43EA87
:1003400000439A4502FA07F240D9E31808F1FF305A
:1003500004D29A4502D9A8F102002344A3EB0A0370
:1003600089B2B3FBF9F809FB183308FB0EFE41EA2A
:1003700003418E452CD9611808F1FF3304D28E4514
:1003800002D9A8F10203214443EA0040A0FB0298ED
:10039000A1EB0E014145CE46434602D306D14D4561
:1003A00004D2B9EB020E68EB04030138002EA6D08C
:1003B000B5EB0E0261EB030101FA0CFC22FA07F324
:1003C0004CEA0303F940C6E9003198E74046C5E727
:1003D0004346D9E710B500208EB002F059FD04461F
:1003E00010B100200EB010BD012000F029F8002847
:1003F000F8D00E4B0D9302230C930D4823460CAA04
:100400004FF4865101F0E2FB00220023CDE90623E0
:100410000523CDE90243CDE90044064B0649049487
:100420004FF4806205480AF0A9FEDBE7A8F500005A
:10043000F0EF0000ED0400008029002038040020C7
:100440002DE9F04107468AB0224E30460DF07BFF81
:100450000225044670B9204BCDE9085303461F48D6
:1004600008AA4FF48251002401F0B0FB20460AB0E4
:10047000BDE8F0811A4BCDE908531848002308AABB
:100480004FF4865101F0A2FB002141F69A100BF0C7
:1004900083FC0823ADF80830124B00934FF420631F
:1004A000ADF8043001238DF8063004238DF80A30AE
:1004B0004FF00008B368ADF80C808DF80B701B6826
:1004C0006946304698474045D0DA074BCDE9085396
:1004D0004346C4E7B4ED0000CFF50000E8EF0000AC
:1004E000E9F50000400ECF19FFF5000030B5124BC2
:1004F000124D9C6887B063680F480A2229469847C6
:1005000000284FF002030FDA0D4ACDE90432002330
:1005100004AA4FF484510B4801F058FB00214FF41A
:1005200020300BF039FCE6E7074ACDE9043200231E
:1005300004AA4FF48651EEE7B4ED00005402002007
:1005400013F60000E8EF00003FF600002DE9F04F41
:1005500091B08407009302F004030293C2F3C20334
:1005600003F10103DDF86880039205460E4605930A
:1005700040F0BE81041D30B1072909D86FF01B007F
:1005800011B0BDE8F08F01F00706341DC6F1080672
:10059000009B4FF00009591E4FF0040A4FF0FF3343
:1005A0000193CDF810904F46CB4653460DB1009ABB
:1005B00022600598002800F3EB809A48009A824256
:1005C00003D399488242C0F0E380039AA4EB050E5E
:1005D00092074FEA9E0000F106810F2F00F2B480CF
:1005E000002D00F0088107F140020DEB020C019A8A
:1005F0000CF8200C0CF8102C049801300490EAE060
:100600007A2860D84B280ED847285CD829282FD8BC
:10061000252855D057D820287DD02338D0F1000B7D
:100620004BEB000B77E0A0F14C0CBCF12E0F4AD83D
:10063000DFE80CF071494949494949494949494963
:100640004C49494949494949495A494C4C5A5A5ACD
:10065000714C6E497149184C18494983804C49497D
:100660004C49800000204FF0000B4FF0040A39E0A5
:10067000A0F12A0C5FFA8CFC012202FA0CFC1CEAA5
:100680000E0F48D11CF062502ED11CEA020B42D052
:10069000013C5444CAF1000C04EA0C04002D61D062
:1006A000A3EB050CA444B4453FF668AF002868D11D
:1006B000042B47D158F8043B2360043404232AE078
:1006C000019A013A01924FF0000B24E011F8010C5D
:1006D0006C2834D111F8023C00206C2B8346C4D125
:1006E0004FF0080A5346D3E708F1070828F0070837
:1006F0000734F8E802AB24F0070435B1069820442B
:10070000B0423FF63BAFC4E900AB08344FF0000BFA
:100710004FF0080A534611F8010F002878D0BBF1BA
:10072000000F7FF46DAF2528F5D1019B01330193B4
:100730004FF0010B4FF0040AECE7584693E7002016
:100740008346A5E7082B02D06FF0150018E708F1E3
:10075000070828F00708F8E80223C4E90023083452
:100760000823D8E768B9042B02D108F10408A4E7EC
:10077000082BE9D108F1070828F0070808F1080854
:10078000EDE7059A013A059258F8042B00920DE71F
:10079000039A900720D5A4EB050E4FEA9E004FF078
:1007A000010CBEF5007FCFD20F2FCDD8F5B107F1E8
:1007B00040020DEB020EC0B2019A0EF8200C0EF8AA
:1007C000102CBCF1000F3FF417AF60F07F000EF863
:1007D000200C09F101090137C5F108020434069221
:1007E0004FF6DA7E97E74FF0000CDAE7BCF1000F26
:1007F00001D00136EFE7029802360028EBD10098CD
:10080000CDE906310CF045FFDDE906310644E2E7AB
:10081000631BB3F5806F97D245B9A6F10804E018C1
:10082000AEE600BF8CEC000098070100029A286039
:100830009B082B709DF81030C2B1EB7085F80290C8
:10084000B9F1000F05D008A80022C5F1010C9742AC
:100850000ED1C5F101030DF120084FF0000A0193FC
:100860000DF1300B574512D1601B89E66B70E5E73F
:1008700010F8013B190608D504EB0C0EB64503F041
:100880007F033FF67BAE04F8013B0132DFE7B9F1AD
:10089000000F03D098F90020002A17DB029BD3B188
:1008A0001AF80B2004F8012B0022019B9818204411
:1008B000B0423FF663AE98F8000004F8010B0099CF
:1008C000039220460CF0F5FE039A14440AF1010A43
:1008D00008F10108C6E798F8002055F82230009387
:1008E000029B45F8223000980CF0D3FE421CDCE756
:1008F0006FF00D0044E600BF2DE9F04F95B000AF5A
:100900000446D7F878B0BB61CBF3C0037A623B6191
:10091000396251B903784678807800EB830020442F
:100920003B6A9E421AD8031B3B6294F802A0E3780C
:100930007B615646BAF1000F02D01BF0010F17D1B0
:100940007B695BBB7B6A1BB1BA69396A20469847F1
:100950003D6A28465437BD46BDE8F08F451C284601
:100960000CF097FE3B6A0130013328443B62D7E725
:1009700094F800806368FB617B6A4FEA8802FA6042
:1009800004EB8808002B40F001813D6AC1460AEB68
:10099000080300264B454ED1D04413E01BF0020F54
:1009A000D0D094F800804FEA8803FB606368FB6155
:1009B0007B6A04EB8808002B78D13D6ABAF1000FFE
:1009C0004ED156461BF0050F0CBF022301237B625C
:1009D0007B6908EB430A0BF002033B62D045B8D0B9
:1009E00018F8021B18F8013C54F82390AC4B9945B9
:1009F00002D3AC4B994539D33B69002B43D0F869FE
:100A00000BF04FFF00283ED0E9468AB06A46A64B5D
:100A10005361FB69C2E906314FF400731384A34BA1
:100A200042F8103FA24800234FF4125101F0CEF8D3
:100A3000023DCD46D2E719F8012B7B6254F8220023
:100A40000CF027FEFA6F7B6A01303AB1D7F88020AC
:100A500096423EBFFA6F22F816000136054499E728
:100A60001BF004061CBF7E6AD044ABE73B6923B190
:100A7000F8690BF016FF0028C6D11BF0010F05D155
:100A80007B6AED1AAAE73B6A002BA7D048460CF018
:100A900000FEFB6F43B1D7F880309E423FBFFA6F34
:100AA000431C22F816300136054497E7BAF1000FCF
:100AB00071D01BF0040671D0D146002607F140002A
:100AC000524641460CF0F5FD7B695B00BB607B69DB
:100AD000D04408EB43037B610BF002037B607B692E
:100AE00098455DD12378FB6163781BF0020F06EB1C
:100AF00003020CBF4FEA590100211BF0010FD2B2D3
:100B000040F09D801BF0040F14BF4846002094F86D
:100B100002B094F803803B616270A070E170BA6922
:100B2000F9687B6A20469847051EFFF612AFFB69FD
:100B300023703B69637084F80380BA697B6A84F828
:100B400002B0494607F140009847B0F10008C0F2F2
:100B5000A3803B6ABA697869A3EB0A01FB68C91AEA
:100B6000BB68C91A7B6A98470028C0F29780A844DE
:100B700008EB00054FF0000B07F1300AB34560D3D6
:100B80000021BA697B6A08469847E2E64FF00009FF
:100B900007F1300094E75646D14695E7B14693E712
:100BA00018F8021B3E4A18F8015C54F825309342AD
:100BB00002D33C4A93421CD33B6923B1F8690BF042
:100BC00070FE00288BD17B68F3B909F1280207F188
:100BD0002800024409F1010302F8101C07F1500239
:100BE00052FA83F309F102095FFA89F903F8105CFC
:100BF00075E73B692BB1F8690BF053FE00287FF4D1
:100C00006EAF1BF0010F09D006F1280207F1280191
:100C1000731C561806F8205CDEB260E71BF0040F68
:100C20003FF45DAF09F1280207F1280109F1010342
:100C300002EB010909F8105C5FFA83F94FE7002025
:100C400065E71BF80A3087F82F3054F82390FB6FC4
:100C5000FBB133F81B80BA697B6A012107F12F00D1
:100C6000984700281ADB0544B8F1000F06D1484622
:100C70000CF00FFD00F101081FFA88F8BA697B6AD1
:100C8000414648469847002808DB05440BF1010B14
:100C900074E7D7F87C80DEE745465AE6054658E615
:100CA0008CEC00009807010057F6000004000001DA
:100CB000B8EF0000014B1860704700BF0000002033
:100CC00030B587B00025CDE903010446009503A99E
:100CD0000548059500F018F9DDE904309842B8BFE1
:100CE000255407B030BD00BFF1C800002DE9F04722
:100CF000058B04462807904611D4022905F0070504
:100D000040F0CD8020460CF00AF878B10138218BF4
:100D1000042811D8DFE800F0C3106D859500012983
:100D20000CBF45F0100545F02005258388F3118898
:100D3000BFF36F8FBDE8F08701F0070AAA4500F006
:100D4000A6800027B9463E46A368002B00F0BD8070
:100D500041F00801218388F31188BFF36F8FA168E8
:100D6000002900F0BB800D68002900F0B780D1F8A1
:100D70000480334652462046C047002D76D02B686B
:100D800029461D46F0E701F007035A1F012A1BD828
:100D9000002221F00701062B276889B2C4E900224E
:100DA00009D13B4603E0628B013262831B68002B52
:100DB000F9D141F00201218320460BF0B0FF002859
:100DC0007BD041F0200177E0042B0AD121F007010C
:100DD00089B2218320460BF0A2FF10B141F020011F
:100DE0002183218B01F0070AAA4550D00027B9467C
:100DF000AAE7236921F0070141F00601062DD3F887
:100E0000009021832DD1B9F1000F40D041F00801AD
:100E1000218388F31188BFF36F8F3A492046C84772
:100E200029E021F00701236941F0040189B2042D72
:100E3000D3F804902183E6D000273E464FF0040A01
:100E400082E721F00701236941F0050189B2052DF0
:100E5000D3F808902183D6D000273E464FF0050AEC
:100E600072E700273E464FF0060A6DE72B4687E7FC
:100E7000B9F1000FD1D14FF02003EFF3118883F3C4
:100E80001288BFF36F8F238B23F008032383258BF6
:100E9000EA062ED525F01003238305F007056669C1
:100EA000218B002EBFF66FAF00232768C4E9003303
:100EB00021F0070141F001012183218B01F0070A94
:100EC000AA454FF000097FF43FAF002F9BD041F0BF
:100ED0000801218388F31188BFF36F8F002FC7D0DB
:100EE0003D6839463346524620460BF044FF2F46B4
:100EF000F4E7AB067FF51AAF25F02003238305F056
:100F00000705FFE6A3CD00002DE9F04F814695B01F
:100F10008B4617461C460025387808B9284658E302
:100F20007B1C2528039306D05946C8470028C0F2E9
:100F300050830135FBE1182200210EA80CF0C4FB00
:100F40007B78252B7DD00023781C98469E469C46B6
:100F50001E46014610F8012B2B2A00F0A18000F25A
:100F60009880202A00F09F80232A00F09F802BB1D8
:100F70009DF8403043F040038DF84030B8F1000F49
:100F800005D09DF8403043F020038DF84030BEF18D
:100F9000000F05D09DF8403043F010038DF840302D
:100FA000BCF1000F05D09DF8403043F008038DF8E8
:100FB00040302EB19DF8403043F004038DF84030AE
:100FC0009DF8403003F04400442803D16FF38613AA
:100FD0008DF840309DF840302A2A43F080038DF888
:100FE00040307FD19DF8412042F001024B1C8DF82A
:100FF00041201A782E2A9DF841200CBF01210021A2
:1010000061F341028DF8412078D15A782A2A6ED0B6
:10101000013300224FF00A0C194611F8010BA0F120
:101020003006092E40F295809DF840101292C1F3CF
:10103000400040EAD2700A4660F341028DF8402039
:101040005CE0BA1C03928DF843309DF84130DA071A
:1010500040F12E8154F8048BB8F1000F07DA9DF8A7
:10106000402042F004028DF84020C8F100085E07DD
:1010700040F1278154F804ABBAF1000F80F22681C9
:101080009DF841306FF341038DF841304FF0FF3A46
:101090001CE12D2A0DD0302A7FF469AF012358E7D7
:1010A0004FF0010C55E74FF0010E52E74FF00108E9
:1010B0004FE701264DE70EFB0262303A0346184621
:1010C00010F8016BA6F1300CBCF1090FF3D999426D
:1010D0008FD09DF840101192D20F62F341018DF82C
:1010E000401086E70B4600224FF00A0EE7E79DF816
:1010F000412042F004028DF8412002331A786C2A14
:1011000047D02BD8682A31D06A2A4BD04C2A51D0EC
:101110001A4612F8013B0392782B9DF841208DF876
:10112000433000F2BE806D2B51D8692B00F2B9809C
:10113000572B67D8412B03D0453B022B00F2B180DF
:101140009DF84230042262F302038DF842300123FD
:1011500073E00CFB0202303A0B465DE7742A25D09F
:101160007A2AD5D19DF8412006210CE05A78682AC8
:101170009DF8412006D1012161F3C6028DF841207E
:101180000233C5E7022161F3C6028DF84120013325
:10119000BEE75A786C2A9DF8412001D10421EBE783
:1011A0000321F0E79DF841200521ECE79DF841205F
:1011B0000721E8E7BDF8402022F4F04222F00202C5
:1011C00042F4804242F00202ADF84020DFE76E3B7D
:1011D000D9B201238B4040F282410B4237D113F048
:1011E000240F51D1D8075CD59DF84230032161F31B
:1011F00002038DF8423002F07803A3F140014B4224
:101200004B411AE0A3F15801C9B2012000FA01F1E3
:1012100011F4624F94D140F6010631421DD111F410
:10122000043F3ED09DF8423060F3020302F07802A2
:10123000402A8DF8423034D000239DF84020C2F37C
:1012400040010B4363F341028DF84020FDE69DF819
:101250004230022161F30203E8E79DF842100220C8
:1012600002F0780260F30201402A8DF8421002BFBA
:101270009DF8401041F001018DF84010632BDBD147
:10128000131E18BF0123D8E79DF84230032161F3F4
:10129000020312F0780F8DF8423014BF01230023AF
:1012A000CBE79DF8403043F001038DF84030C3E7B1
:1012B0009DF94020002AB4BFDDF844804FF0FF388C
:1012C000D5E698077FF5E2AEDDF848A09DF841101D
:1012D0000023CDE911339DF8423003F00703012BC1
:1012E000C1F3C30133D1CB1E042B04D8DFE803F0D4
:1012F000214646212100236801294FEAE372CDE906
:101300000E321CD19DF93830DA17CDE90E32043493
:101310009DF8403013F0030650D0039B3A465946DF
:1013200048460BF06BFE0028C0F253810544039F32
:10133000F2E554F8043BDA17CDE90E32E8E702296A
:10134000E5D11AB243F3C033CDE90E23DFE7022B18
:1013500024D1CB1E042B04D8DFE803F0181010189A
:101360001800012954F8043B4FF0000214D0022960
:10137000CDE90E32CCD19BB20E93C9E7073424F0ED
:101380000704F4E80223CDE90E23C1E754F8043B37
:101390000E9300230F93BBE7DBB2CDE7042B08D1FC
:1013A000073424F00704D4E900230834CDE90E23E0
:1013B000AEE7032BACD154F8043BDDE79DF84300C6
:1013C0007828B4D862281CD825283FF4ADAD582819
:1013D000ADD10DF136030093DDE90E0108AB10AA83
:1013E0000BF0C6FDBAF1000F074680F29A80002F7D
:1013F0009DD00DF13603D81B002E00F0C1800130C6
:10140000BEE06338152892D801A252F820F000BF40
:10141000E5140000F71400002F1300002F13000044
:101420002F1300002F130000F71400002F130000EB
:101430002F1300002F1300002F130000851500004C
:101440001D150000431500002F1300002F1300008E
:10145000691400002F1300001D1500002F13000059
:101460002F1300001D150000BAF1000F0E9F35DB91
:10147000514638460CF014F907EB000A002F3FF4F0
:1014800056AF00269DF8423013F01002059200F08E
:10149000938002305B06119A48BF129B049210445D
:1014A00048BFC018B8F1000F40F3A0809DF840205D
:1014B000A8EB0008C2F380035007069300F1968062
:1014C000510640F189803EB159463046C847002850
:1014D0007FDB069B01351E4630227EE038460CF04D
:1014E000D8F8C9E70E9B8DF82030002608AF0DF123
:1014F000210A0120C6E719075CBFC3F300135E0190
:10150000DDE90E2348BF2B26002BBFF662AF524207
:1015100063EB4303CDE90E232D265AE7002658E757
:1015200000269DF840200DF13603DB1B6FF3861279
:101530009A458DF840207FF65AAFAAEB030311932A
:1015400055E70E9890B30DF13603009310AA08AB3F
:1015500000210BF00DFDBDF8423003F0EF0343F422
:10156000F04343F01003BAF1000F0746ADF84230E4
:10157000D6DA00283FF4DBAE0DF13603181A002648
:101580009A467FE70E9B07293FF6D1AEDFE801F0D0
:101590000C04060C08080C0C1D70C8E61D80C6E67D
:1015A000EA17C3E90052C2E61D60C0E62E4F0646A8
:1015B00007F1050A052065E71A0748BF013069E70A
:1015C0000793104606925946C8470028DDE90623CE
:1015D00004DA15B0BDE8F08F2022434619460029F1
:1015E00003F1FF33ECDC45446D1A98462EB15946A1
:1015F0003046C8470028ECDB01359DF84230DA065A
:1016000001D41B0705D559463020C8470028E0DB28
:101610000135059B33B19DF843005946C847002862
:10162000D7DB0135049E2E4405E059463020C847DB
:101630000028CEDB0135731B002BF6DC53463A46FF
:10164000594648460BF0DAFC0028C2DB0544A844A2
:10165000A8EB0503002B7FF76AAE59462020C84748
:101660000028B6DB0135F3E70BF7000008B50446A8
:101670004FF02002EFF3118382F31288BFF36F8FD4
:1016800007F094F9204602F077FE03480BF043F987
:1016900002F00AF8FCE700BF11F7000007F0CEB92E
:1016A0002DE9F047DFF85880044607464FF001095E
:1016B00014B93846BDE8F08794FAA4F5B5FA85F573
:1016C00009FA05F32E0108EB05156FEA030A24EA6F
:1016D00003042B7B002BEBD058F806301B694BB969
:1016E0004644042273682846196807EA0A0700F08E
:1016F00059FADDE7284698470028D9D1F0E700BF1E
:1017000060F0000030B51049104889B000220DF09B
:10171000D7F80F4D0F4900220023CDE906230024FE
:101720000E23CDE90334CDE901440B4B00944FF473
:101730004072284609F022FD084928460CF065FE53
:10174000204609B030BD00BF6117000040090020ED
:10175000B8040020C02D0020511A00003AF7000004
:10176000014809F099BE00BF7C0300202DE9F04735
:1017700080461F480F460BF0C1FE0646002830D0B9
:1017800000252846BDE8F087237B73B12368DB681A
:101790000BB12046984723681B69D3B963680422BC
:1017A0001968204600F0FEF9013610344C45EBD3A1
:1017B000B8F1000FE5D0002DE2D02846FFF770FF0A
:1017C0000546002FF7D000214FF4A4700AF0E4FA88
:1017D000F1E7204698470028E0D00AFA06F31D43B7
:1017E000E2E7044CDFF8109005464FF0010ADDE710
:1017F000080C002060F0000080F00000014B53F85E
:10180000200070479CF0000008B5034608462BB145
:10181000044A136000F078FC002008BD6FF015004A
:10182000FBE700BF0400002010B5044C237813B977
:10183000034809F031FE0123237010BDFC23002072
:101840007C03002010B5044608480BF057FE5CB13D
:10185000BFF35B8F064B53E8001F013943E80012CA
:10186000002AF8D1BFF35B8F10BD00BF000C002031
:10187000040C00200020064BBFF35B8F014653E8A9
:10188000000F43E80012002AF9D1BFF35B8F7047C5
:10189000000C002070B5FFF7EDFF084C084E054620
:1018A000B44200D370BD63685B792BB123685B6879
:1018B00013B12946204698471034F1E760F0000044
:1018C00080F0000010B5044C044920460BF0A7FC42
:1018D000034B1C6010BD00BF6C02002088F00000AC
:1018E000F80B0020084A094808B500231370084A7D
:1018F0001360084A4FF400411360FFF785FFBDE80D
:101900000840FFF7DFBF00BFFD230020F9D400002F
:10191000000C0020040C0020014600220148002396
:101920000BF09EBC6C02002001480BF037BD00BFDD
:101930006C020020024B014618680BF081BD00BF0D
:10194000F80B002001480BF0B7BD00BF6C0200206F
:1019500070B5284B187800284BD0FFF7E5FF0546F7
:1019600090B1BFF35B8F244B53E8001F013943E86C
:101970000012002AF8D1BFF35B8F204C204EB442F6
:101980002DD32846FFF7D6FF1E4B1F4C1B68002B9C
:1019900019DD0CF06DFF4FF47A72A0FB020302FB1D
:1019A0000131C30BD4E9002043EA41439B1A4FEABB
:1019B000D13140F2E93261EB0001934271F1000153
:1019C00001D3FFF767FFD4E9003213F57A7342F1D0
:1019D0000002C4E90032BDE87040FFF7B3BF63689E
:1019E0005B7923B1236829461B6820469847103449
:1019F000C5E770BDFC230020040C002060F000004F
:101A000080F00000000C00203809002070B50D4D5A
:101A1000297861B90120FFF7A9FE0B4C0B4EB442A7
:101A200006D3FFF795FF0028FBD101232B7070BD73
:101A300063685B791BB1236820469B689847103424
:101A4000EDE700BFFD23002060F0000080F0000003
:101A500000212DE9F0470846FFF788FE044648B309
:101A600040F267684FF000090AF0CAF91A4B186093
:101A700030B11A4B1B68092B02DD194809F00CFD27
:101A8000184FDFF85CA0002544B12046FFF708FEA0
:101A9000044618B94FF0FF384FF0FF39FFF758FFF1
:101AA000064628B9B5B942464B46504609F01AFDDC
:101AB0003546E9E74FF0FF384FF0FF39D4E72B68A0
:101AC0009B691BB100221146284698471035BD423C
:101AD000F5D3E8E7044DFAE7FC0B0020040C0020E6
:101AE0007C03002080F0000060F0000013B518486F
:101AF0000BF004FD174B1B787BB14FF02003EFF385
:101B0000118483F31288BFF36F8FFFF721FF84F3F3
:101B10001188BFF36F8F02B010BD0F4B1B68002BF5
:101B2000F9D050B900220023CDE900230B484FF42F
:101B3000004200230AF0A8FBEDE70A28EBD1074892
:101B40000CF0CAFE064802B0BDE8104009F0A4BC83
:101B5000040C0020FD230020FC0B00204009002085
:101B60007C03002010B5064B1B68044698472146AD
:101B7000A06004480BF0F2FBBDE81040FFF7B6BFD1
:101B8000040000206C020020044A054B9B1AB1EBB4
:101B9000D30F34BF52F831000020704788EF0000A7
:101BA00060F00000084BC31A10B41B1144680133E5
:101BB000237143689A7143681960436801225A711E
:101BC00010BCFFF731BE00BF60F000002DE9F04F00
:101BD0008FB004AFC1F34A28B8600D4691467B60D0
:101BE0000C0DB8F1000F63D0002607F114034FF07D
:101BF000040B4FF00A0AC7F80C80C7E907667E623B
:101C00000193CDF808B0CDF800A007F11C03F968E6
:101C100032464846FEF770FEB0F5006F03461CD30F
:101C20006C468AB0D9F8041004AB2648C3E9050114
:101C300040F2FF71D9611A464FF400711984224BAA
:101C400042F8103F214833464FF41251FFF7BEFFD0
:101C5000A5462C37BD46BDE8F08FC0F30A0804F155
:101C60001700184420F0070080083B60FFF754FE7F
:101C700068F35325044690B13B68154AC7E9083616
:101C800000F1100107F11403F961CDE900A3CDF8CB
:101C900008B0F96807F11C034846FEF72DFE68F30B
:101CA00053257B68B9682A4620460BF05DFCD0E7D7
:101CB00004F1170020F007008008FFF72DFE04460E
:101CC000EDE700BF4FF7000004000001D0EF000077
:101CD0003DD500002DE9F04F87B0DDE91269DDE95F
:101CE000105A04460F4693469846A6B31021CDF8E5
:101CF0000090334652460020CDF81490FEF726FCA3
:101D0000014605F117000844144B039104F0070441
:101D10000BF0070BE40020F0070003EA412344EA3C
:101D20008B1480081C43FFF7F7FD44EA0554054671
:101D300040B13EB10399CDF8009033465246103081
:101D4000FEF704FC434622463946284607B0BDE864
:101D5000F04F0BF009BC3146D3E700BF00FE0F0087
:101D60000EB403B503AB014653F8042B04480193AA
:101D70000BF020FC02B05DF804EB03B0704700BF2D
:101D8000DDD50000CA0605D48B064CBF02490349C5
:101D9000FFF7E6BF704700BF8FF700008EF7000027
:101DA0002DE9F04F89B09B469DF848300493DDE95A
:101DB00013930593049B0692DDE9157604460D46C0
:101DC000002B00F0878006F0080307930BF0B4FBAC
:101DD00006F0020A024600284BD086492046FFF74B
:101DE000BFFF8046BAF1000F08D016F0440F42D171
:101DF00081492A462046FFF7B3FF804406F00103DD
:101E00005BB17E4B049A7E4953F822207D4B2046DD
:101E1000002A08BF1A46FFF7A3FF06F00803002BAD
:101E200055D0794B049A794953F822202046FFF780
:101E300097FF0546069B2BB175491A462046FFF7CA
:101E40008FFF0544BBF1000F05D072495A4620466A
:101E5000FFF786FF05444544B9F1000F49D1002F33
:101E60004FD1F30700F1C08031462046FFF78AFFCB
:101E7000B4E08046B6E7684B18680028BDD0674BD1
:101E80004FF47A7E1B68B5FBF3F54FF46162B5FB46
:101E9000F0F300FB1355B3FBF2FA0EFB05F502FB62
:101EA0001A323C21B5FBF0FCB2FBF1F300FB1C55F0
:101EB00001FB13220EFB05F50092B5FBF0F5584926
:101EC000CDE901C552462046FFF74AFF95E706F0E7
:101ED0000805AFE7BBF1010F06D1B9F1000F64D1DE
:101EE000002F7BD000250CE0B9F1000FF8D04D4851
:101EF0005CE04D484D494B4622460AF0A1FC002FBC
:101F000068D0DFF82C91DFF82CA1102F3146204645
:101F1000B84628BF4FF01008FFF734FF4FF0000B12
:101F20005D4545DC059B51461A782046FFF718FFB2
:101F30004FF0010B1BF0070F03D149462046FFF776
:101F40000FFFD8453BD9059B514613F80B2020467F
:101F5000FFF706FF0BF1010BBBF1100FEAD1364979
:101F600020464FF0000BFFF7FBFE5A46059B9A5C9C
:101F7000A2F120015F2928BF2E2230492046FFF719
:101F8000EFFE0BF1010BBBF1100F1DD01BF0070F83
:101F900003D149462046FFF7E3FED8455A46E5D827
:101FA00049462046FFF7DCFEEBE71F48049DA1E70A
:101FB00049462046FFF7D4FE0BF1010BB0E720495C
:101FC0002046FFF7CDFEC5E7059BB7EB0807434466
:101FD00005939AD1049B002B7FF443AF204609B0B0
:101FE000BDE8F04F0BF0EDBA064A05492046FFF771
:101FF000B7FE39E796F700009AF70000ACF0000052
:102000000105010091F70000C0F00000BFF70000DB
:10201000C5F70000C9F70000100C00200C0C0020D0
:10202000A3F7000013D60000DDD50000B5D50000F1
:102030004BF60000CEF70000D8F70000DAF70000FA
:10204000D4F700002DE9F0410F884B688E6886B008
:1020500005460C469046C7F382175BB1134A9B1A9C
:1020600043F3CF0100291FDB2078C0F3C200FFF744
:102070008BFD03462146608851F8102B0097C2F370
:102080004A22002A01EB0204C0F30B1008BF002112
:10209000CDE90308CDE90114002231462846FFF7B7
:1020A0007FFE06B0BDE8F0810023E3E788EF000083
:1020B00073B542F20F738B4228BF0B4605680F4A77
:1020C0000446052168460AF033FC63680C495B68E6
:1020D00006460B2228460BF060FA636832466946D2
:1020E00028465B680BF059FA636806495B681B2257
:1020F00028460BF052FA02B070BD00BF6C0201001E
:10210000F9F70000DDF70000074A002101239042A3
:1021100006D8064A01B901231360054B18607047C1
:1021200040085B000121F2E740420F000C0C002048
:10213000100C0020014B01221A707047FE23002072
:10214000014B002019607047280C0020024B034807
:1021500001221A700BF035BAFF230020F0F00000C6
:102160000148FFF7A5BF00BFF0F0000010B5064B17
:1021700018680C46FFF742FB21460346BDE81040B5
:1021800002480F22184700BF280C0020F0F0000082
:1021900010B9074B18707047064B1B781BB141F202
:1021A00088300CF067BBA420002109F0F5BD00BF0A
:1021B000FE230020FF2300202DE9F843DFF8749070
:1021C0001D4F80460E46042499F8005095B908F03A
:1021D000E3FD28463246414608F08CFD054608F0EE
:1021E000E5FDE5B101233B7099F8003073B9304645
:1021F000BDE8F88332464146002008F07BFD0546E5
:10220000EFE72046FFF7C4FF651E2C46002008F0CC
:10221000B9FD0028EBD03B78002BF2D1E7E73B7803
:10222000002BE4D0013C2046FFF7B2FF3B78002BA7
:10223000CAD1DCE7FF230020FE230020014B002051
:1022400019607047400C0020024B034801221A70AD
:102250000BF0B7B9112400201CF100000148FFF772
:1022600027BF00BF1CF1000010B5064B18680C46D4
:10227000FFF7C4FA21460346BDE8104002480F228A
:10228000184700BF400C00201CF10000F8B5074FB4
:102290000D4604464618B44201D12846F8BD14F84C
:1022A000011BBB6801485B689847F4E76CED0000D0
:1022B0002DE9F84305464FF02003EFF3118683F331
:1022C0001288BFF36F8F0E4B0E4F1C68DFF83880FB
:1022D0004FF00C092CB986F31188BFF36F8FBDE85E
:1022E000F883D4E90123002D18BF13462BB198F8C9
:1022F000102009FB02F2B85C98472468EAE700BFA7
:102300005C0C0020500C0020E821002070B5194B17
:102310001C7CBFF35B8F04F01F0301229A40164B15
:10232000610903EB8103D04353E8001F01EA000574
:1023300043E80056002EF7D1BFF35B8F0A4213D05B
:102340000E4B0F4D8BB10C236343EA18E85C5178B8
:102350000BF0D2F90020FFF7ABFF0C235C432A19E6
:1023600000232B51C2E9013370BD83F31188BFF301
:102370006F8FEFE7E8210020640C0020F9D6000001
:10238000500C00202DE9F041354B07461D7C4FF0E5
:102390002003EFF3118883F31288BFF36F8F0C24AF
:1023A000304B314E6C431A19195D00294CD007CAC5
:1023B00006EB040C8CE8070000221A5588F31188FC
:1023C000BFF36F8F0C236B43F218F05C002839D0F9
:1023D0007B1C10D0D2F808C0244C254A4FF4004092
:1023E0000021ECFB004100232046FDF789FE01217E
:1023F000381A06F09FFA09F015FC0120FFF758FF84
:10240000BFF35B8F1B4B6A0903EB820305F01F01CF
:1024100001228A4053E8000F104343E800010029DD
:10242000F8D1BFF35B8F144B3BB10C2303FB05F0DA
:102430003318305C59780BF053F9FFF767FF09F058
:1024400005FC0120BDE8F0810146284600F016F8A1
:102450000028B3D007C8344484E80700AEE700BFC3
:10246000E8210020440C0020500C00203F420F00C7
:1024700040420F00640C0020E1D600002DE9F04F2F
:1024800085B00E4603A900F043F81E4B039DD3F818
:1024900000A0DFF87480431E1BB203EB4303044625
:1024A00005EB83054FF400474FF0000B24B9A1461C
:1024B000484605B0BDE8F08F6868144AC4465946DE
:1024C000E0FB07C100236046FDF71AFE0190A868F3
:1024D0000E4AC4465946E0FB07C100236046FDF79B
:1024E0000FFEBAF1FF3FA94601D0824505D9731C02
:1024F000DED0019B1844B042DAD9013CA4B20C3DB5
:10250000D4E700BF080000203F420F0040420F0008
:1025100008B9024B0B600020704700BF2CF100008F
:10252000F0B40C4B0C4E5F6A0C4BB34203D36FF00C
:102530008500F0BC70475D68BD4209D31C693CB1A1
:1025400095F802C00579AC4502D12346F0BC184786
:102550002433EAE7680C0020310400203104002015
:102560002DE9F047134CDFF85080DFF85090054616
:102570000E461746444503D36FF08500BDE8F0874B
:102580006268D9F824309A4212D3A36983B1907853
:102590002979884205D13A4631462846BDE8F047B8
:1025A00018475279012A03D13A46314628469847BE
:1025B0002434DFE73104002031040020680C0020BF
:1025C0002DE9F0410B4CDFF8308005460E461746EA
:1025D000444502D36FF0850009E063690BB92434E8
:1025E000F6E73A463146284698470028F7D1BDE835
:1025F000F08100BF3104002031040020024808228D
:1026000000210BF061B800BF230D002070B50B4B0B
:102610000B4CA34201D3002070BD196A1E7F00221B
:102620000439D5B2AE4201D82433F2E7013211F8B1
:1026300032508542F5D10120EEE700BF3104002081
:102640003104002008B509480378C3F341130A3365
:1026500050F823303BB100F1080200F11001984717
:10266000C043C00F08BD1846FCE700BF680C00203F
:102670007FB5074B05930748022304AA4FF4825104
:1026800004930AF0D5FF4FF0FF3007B05DF804FB6C
:1026900052F8000048F0000080B500AF88B06A46EC
:1026A000064BC2E90530032342F8103F04484FF4BB
:1026B000C2510AF0BDFF0020BD4680BD77F8000082
:1026C00048F00000F8B500AF05460BF035F810F102
:1026D000780F04461AD16C4688B06A46154B1648E6
:1026E000C2E90535032342F8103F4FF4C4510AF004
:1026F0009FFFA54628460AF09EFF104AD2F8C43034
:1027000023EA0003C2F8C430002410E00028F1D00E
:102710006E4688B06A460A4B0748C2E9053503236E
:1027200042F8103F4FF4C2510AF082FFB5462046EE
:10273000BD46F8BD92F8000048F00000680C00208B
:10274000B3F8000004282DE9F74FDFF89C90044609
:102750000F4615D001282FD1DFF8908098F8B930B6
:1027600053B300F071FE224D4D4522D22A6A4FF03C
:10277000000A2B7F5FFA8AF6B34204D82435F3E7C8
:10278000FFF73CFFE8E702EBC606019230790AF05A
:10279000D3FF834630790AF04EFFD8F8C430019A4F
:1027A00023EA0003BBF1000FC8F8C4300AF1010AA4
:1027B000DFDA002388F8B9300D4D4D4508D30B4BB7
:1027C0001B6A6BB13946204603B0BDE8F04F18478D
:1027D000EB681BB13A462146284698472435ECE77A
:1027E00003B0BDE8F08F00BF31040020680C00206A
:1027F00031040020F0B583B0C4B200AF63060D46CB
:10280000FC7107D02046FFF701FFE8B11C4B93F89D
:10281000BA00C8B11A4ED5B16D4688B06A46194B98
:102820001948C2E90534032342F8103F4FF4C6515A
:102830000AF0FEFEAD46F87902F0ACFAF36913B186
:10284000F91D0820984701200C37BD46F0BD6D46A4
:1028500088B06A460D4B0C48C2E90534032342F8A0
:10286000103F4FF4C6510AF0E3FEAD46F87902F08E
:10287000CBFAF369002BE6D0F91D0920E2E700BF8F
:10288000680C0020D5F8000048F00000E8F80000CF
:10289000F0B583B000AF0446807838702379627950
:1028A000364D43EA02237B80E37803F003033B7158
:1028B0000AF0C1FED5F8C430184206460CD0A47800
:1028C000204600F0A3FD2046FFF7FCFE0BF097FD2D
:1028D00010B9962009F07AFA384602F027FA10F17A
:1028E000780F3B782DD16C4688B06A46244925483C
:1028F000C2E90513032342F8103F4FF4C4510AF014
:1029000097FEA546387802F0BBFA10F1780F2DD16A
:102910006C4688B03B786A461B491A48C2E90513E1
:10292000032342F8103F4FF4C4510AF081FEA5463C
:10293000D5F8C4300120334385F8B900C5F8C43058
:1029400011E00028DED06C4688B06A460F490D4879
:10295000C2E90513032342F8103F4FF4C2510AF0B5
:1029600067FE0020A5460C37BD46F0BD0028DFD02D
:102970006C4688B03B786A460549E8E7680C002059
:10298000FDF8000048F0000044F9000020F90000C4
:1029900064F900002DE9F047A34EB36904460F46E1
:1029A0001546FBB9237803F01F03012B00F09D802F
:1029B000022B00F0048133BB94F900002A6861788F
:1029C000002834DA062912D008292BD0D9B90123DE
:1029D0001370517096F8C3305B0043F0010313701D
:1029E00002232AE198470028DCD100200DE062880C
:1029F000100A011F0129844605D9072803D8716AE6
:102A0000D2B20C781CB96FF01500BDE8F0874E7893
:102A1000664503D19A4200F00B8101332144F0E76F
:102A20000B780AE196F8BA301370012305E10139F9
:102A30000829E8D801A353F821F000BFD52A0000E7
:102A4000072A0000E32A0000072A0000612A00008C
:102A5000072A0000072A0000072A00006D2A00004C
:102A6000A07802F01FF90028BFD0CCE76388756A10
:102A700063BBFFF7C3FD638886F8BA30F369002BA8
:102A8000B3D06A4903209847AFE76B78042B10D086
:102A9000052B11D0022B04D16F796388BB4208BF8C
:102AA00001202B781D442B78002BEED10028AAD0D2
:102AB000DFE795F80380F4E76388BB42F1D1B8F112
:102AC000000FEED12846FFF7E3FEEAE7FF270020DC
:102AD000B846E8E76388012B95D1002386F8C33018
:102AE00083E76388012B8ED1F8E796F8BA30D5F8E2
:102AF00000C0002B87D0756AA38894F804E02A46AA
:102B0000107800283FF47FAF5178022904D192F861
:102B10000480F04500F293800244F1E78CF8002035
:102B20008CF80120396060E7154494E00B2A7FF4AB
:102B30006AAF00274FF0FF08C146BA4606E06B783F
:102B4000042B0FD0052B21D02B781D442B78002B84
:102B5000F5D1F36913B1514607209847002F7FF450
:102B600044AF50E795F80280A38895F80390984504
:102B7000EAD163889945E7D1B8F1070F1CD806EB75
:102B80000803AA4683F8BB900127DDE7A3884345E5
:102B9000DAD1A3784B450AD0AF78384600F036FC3E
:102BA0003846FFF78FFDB0FA80F77F09CCE728465B
:102BB000FFF76EFE0746C7E7AA460027C4E794F969
:102BC00000206378002A18DA002B7FF41CAF2479E8
:102BD0002D6863060AD02046FFF718FD00283FF451
:102BE00012AF96F8BA30002B3FF40DAF29462046BD
:102BF00002F02AF900236B70F2E6012B08D0032BB8
:102C00007FF401AF6388002B7FF4FDAE012103E068
:102C1000618800297FF4F7AEA088FFF7EBFD00285C
:102C20007FF4E3AEEFE600BF680C0020220D002029
:102C3000022829607FF4F4AE4B883B60D5E694F916
:102C4000000062780028BFF671AF002A3FF466AF3B
:102C50000A2A7FF4D8AE2A78002A3FF4D4AE6978E5
:102C600004297FF461AFA9788B427FF45DAF072B15
:102C700096BF9B19002393F8BB308CF80030D4E644
:102C80002DE9F04F83B000AF144E796004469046B2
:102C9000994604254FF0030A79684B464246204680
:102CA00002F018F910F10B0F834612D1C7F800D0CB
:102CB00088B06A460A48C2E905644FF4C45142F834
:102CC00010AF0AF0B5FCD7F800D008F0E3FF013DE3
:102CD000E2D158460C37BD46BDE8F08F85F90000BB
:102CE00048F0000013B5134C237DCBB9E268A1680E
:102CF000019201AB8020FFF7C3FF019AA368134440
:102D0000A360E3689B1AE36043B93AB12369E288A0
:102D10009A4203DD9B0601D10123237502B010BD49
:102D200000231A4619468020237502B0BDE81040E2
:102D300002F0D0B8680C002070B58AB000230D46B0
:102D400001930646002867D100293FD108220B468F
:102D50000DEB02010AF009FD002804DA802002F0E0
:102D600019F80AB070BD314C029A2260039A626071
:102D700004F13802A2609DF90820BDF80E302575D7
:102D8000002AC4E9035514DB802B0ED9284B2948AF
:102D9000099308AA02234FF4825108930AF048FCD1
:102DA000802001F0F7FF2846D9E713B1C4E90333C7
:102DB000D7E7FFF747FC0028D0D0E28823699A4282
:102DC000D4BFE260E360FFF78DFFCAE7174CD4E998
:102DD0000212002A01AB05DC02460AF0C6FC0028FC
:102DE000BFDABBE70AF0C1FC002804DA802001F05A
:102DF000D1FF3046B3E7019AA3681344A360E368A8
:102E00009B1AE360002BACD104F13803A360FFF7F9
:102E100019FC0028D7D1A1E78028A2D1034BDA689A
:102E2000002AD0D11B7D002BCDD19AE7680C002061
:102E3000ACF9000048F00000054B064A9A62064AC9
:102E4000DA62064A1A63064A58629A61002070479D
:102E5000680C00209529000021250000C1250000F4
:102E60006125000010B5094B93F8B84054B900F043
:102E7000E7F818B9BDE81040FFF7FABBFFF7DCFF31
:102E8000204610BD6FF07700FBE700BF680C002004
:102E90002DE9F041044686B03F4D40484FF0FF32E7
:102EA0004FF0FF3308F00EFA95F8B86096B13C4B3E
:102EB00005933C48022304AA4FF484516FF0770431
:102EC00004930AF0B5FB354808F076FA204606B0C0
:102ED000BDE8F08134482C62E86102F06FF901F03E
:102EE000AFFE041EEFDB00F0D3FA041EEBDB402341
:102EF0006846ADF802308DF804608DF8006001F08E
:102F000015FF041EDFDB802768468DF8007001F096
:102F10000DFF041ED7DB2549304602F03BF9041EA5
:102F2000D1DB2249384602F035F9041ECBDB204CB8
:102F3000DFF8808044451AD3002001F0A1FF041E71
:102F4000C1DBD5F8C430802043F00103C5F8C4309C
:102F500001F096FF041EB6DBD5F8C43043F480338D
:102F6000C5F8C430012385F8B8300024ABE7276AE0
:102F70000026227FF3B29A4201D82434DAE707EB25
:102F8000C30257F83310107902F004F90136002813
:102F9000EFD04FF0FF3496E7680C00206803002064
:102FA000C5F9000048F0000045270000392D000059
:102FB000310400203104002030B51F4B8BB005AA2E
:102FC00003F1100518685968144603C40833AB426E
:102FD0002246F7D11B7823701022002101A80AF0A5
:102FE00073FB1222002115480AF06EFB102101A884
:102FF0000AF0AEFC00281BDD0828B8BF08200938FD
:1030000001AB0E491A18002012F8013F0AAC04EB7C
:10301000131403F00F0328336B44013014F8144CDD
:1030200013F8143C0C7008284B7001F10201EBD12D
:1030300002480BB030BD00BFF3F90000122400209D
:103040002DE9F04F834C8BB000AF00264FF0011BF1
:10305000B2463546B046237843B97F4B02349C4292
:10306000F3D17C482C37BD46BDE8F08F6378052B43
:1030700005D8DFE803F0A60403A6073FA04623789F
:103080001C44E8E7E378002BF9D1A37843B30AF1B5
:10309000010A5FFA8AFAF2E76A68944223D024357B
:1030A0009D42F9D36D4688B06A466C4BC2E905343F
:1030B000032342F8103F6A4800234FF4C251FEF741
:1030C00085FDAD46674B7B6202233B62644800236B
:1030D00007F120024FF48251FEF778FD0020C1E78E
:1030E000614D624BDCE7AB68002BD0D051462046E7
:1030F0009847CCE7002D62D15D4B7B6202233B6297
:103100005748002307F120024FF48251FEF75EFD7D
:10311000D8E7296AA07801EBC2010B79984205D063
:1031200001322B7F9A42F4D3524BE6E74FF001096C
:10313000E07800F003003875207994F805C040EA83
:103140000C20788294F9020000285FFA89F328DACB
:1031500009F110004FF0010C0CFA00F010EA0B0F0F
:1031600027D143F08000387407F11000C7E901311E
:10317000FA6001F0A9FDD7E902127B68C8B93A7C70
:10318000A27012F0800F18BF10330A7118BFDBB2A3
:103190004FF0010214BF9A4002FA09F24BEA020B07
:1031A0006DE7012000FA09F010EA0B0F01D1184673
:1031B000D9E709F10109B9F1100FB9D1B0E700223F
:1031C000AFE7032E2AD1FFF7F7FE8146A8B10AF038
:1031D00060FAF86088B128480AF05BFAFA6882421F
:1031E00017D0264B7B6202233B621D48002307F168
:1031F00020024FF48251FEF7E9FC23786FF00201C0
:10320000E218091B04EB5303D1420ED50136F6B286
:1032100035E74946A01C0AF04CFAEEE7002EECD147
:10322000B8F1000F0AD1164B67E74FF0000002F823
:10323000010C13F8010902F8020DE5E7A4EB0803FD
:1032400088F80230C3F3072388F8033088F804A015
:10325000DCE700BFAC0300203104002004FA0000CA
:1032600040F00000EAFA00003104002031040020A0
:1032700024FA000065FA0000F3F9000082FA000069
:10328000CDFA000010B5094B00211A461C78844283
:1032900005D15C681CB1482303FB012010BD01313E
:1032A000042903F14803F1D10020F7E7300D002095
:1032B0002DE9F04383B050F8303C10F8345C103303
:1032C00000AF044611D1036950F8282C13F0020610
:1032D0004ED00ABB13F0040304D11A4619462846FF
:1032E000FFF7CEFC002344F8303C54F8303C103358
:1032F0000ED054F8206C5EB154F8248C54F81C9C09
:103300000BF07DF800286FD03D4821460BF056F9B0
:103310000C37BD46BDE8F08350F82C1C3B1D2846F9
:10332000FFF7AEFC98B16E4688B06A46354BD56162
:10333000C2E90530042342F8103F334800234FF41C
:103340000151FEF743FCB5466FF01503CBE77A68F1
:1033500054F82C3C134444F82C3C54F8283C9B1A59
:1033600044F8283C54F8243C134444F8243CBCE77B
:1033700050F82C1C3B1D284601F04EFE88B1E84653
:1033800088B06A461F4BD561C2E90530042342F874
:10339000103F1D4833464FF40151FEF717FCC54658
:1033A000D2E77E6854F82C3C334444F82C3C54F863
:1033B000283C9B1B44F8283C54F8243C334444F8F4
:1033C000243C002E8ED0284601F0FEFEB6FBF0F322
:1033D00003FB1066002E85D154F8283C002B81D0C9
:1033E000284601F07FFE80E744F8200CA4F1180085
:1033F00008F052F84A4641462846B04788E700BFE1
:10340000380B002018FB000058F0000010B54FF0FA
:103410002003EFF3118483F31288BFF36F8FFFF75C
:1034200031FF50B14368103307D16FF08B03436015
:1034300000F1340103480BF0C1F884F31188BFF3A5
:103440006F8F10BD380B002070B50F4C04254FF066
:103450002003EFF3118683F31288BFF36F8F636845
:10346000103307D16FF08B030848636004F1340117
:103470000BF0A4F886F31188BFF36F8F013D04F1C0
:103480004804E4D170BD00BF300D0020380B00208F
:1034900070B50A4C0A4E0025314620460BF071F8F3
:1034A0000122A4F11800114601350BF048F8042D53
:1034B00004F14804F0D1002070BD00BF640D00206D
:1034C000B1320000014809F013B800BF2CF1000030
:1034D00038B5044618B90F4B0F485B6898476168C8
:1034E000B1F5683F0FD0B1F5680F0CD00B4DA94274
:1034F00009D011F4686107D0094821460AF056FF47
:1035000000232360656038BD206814220AF0DCF8CF
:10351000F8E700BFF401002042FB00002C5F5CA92B
:103520005013002008B520B34368B3F5683F10D1AD
:1035300001220368BFF35B8F53E8001F002903D10A
:1035400043E800200028F7D1BFF35B8F0DD10020A6
:1035500008BD094A93420AD000684FF0FF324FF08D
:10356000FF3307F0AFFE0028F1D00448F0E704482D
:10357000EEE76FF4E040EBE72C5F5CA9E98FFFFF1B
:10358000EA8FFFFF08B5D8B14368B3F5683F10D1A3
:1035900000220368BFF35B8F53E8001F012903D1AA
:1035A00043E800200028F7D1BFF35B8F0BD1002048
:1035B00008BD074A934208D0006807F0FDFEF6E711
:1035C0006FF4E040F4E70348F2E70348F0E700BF98
:1035D0002C5F5CA9E98FFFFFEA8FFFFF10B504465F
:1035E00018B91D4B1D485B6898476368B3F5683F81
:1035F0002FD0B3F5680F2CD0194A934219D1236804
:1036000003BB18484FF0FF324FF0FF33214607F05D
:1036100055FD08B923681BB90F4B13485B689847E1
:103620002068142200210AF04FF84FF468636360A9
:1036300008E0B3F5683F0DD83A2B03D040F6BA62E4
:103640009342DED120680AF0F6FE636843F03A0345
:10365000636010BD054AF3E7F401002042FB00005F
:103660002C5F5CA95013002068FB00003A00003A70
:1036700008B506490648402314220AF089FEBDE831
:1036800008400449044808F0A5BF00BF500E0020C0
:103690005013002034F1000048F1000001491022CD
:1036A0000A60704710ED00E072B6404080F3118868
:1036B000BFF36F8FBFF34F8F30BF62B6BFF36F8F13
:1036C000704700BF72B6494081F31188BFF34F8F36
:1036D00020BF80F3118862B6704700BF2DE9F04724
:1036E000814600AF0C4600294CD06E468AB0D1E925
:1036F0000012A3686D462748A8464FF0050AC5E9A1
:103700000501C5E9072348F810AF234842460023C6
:103710004FF42151FEF75AFAB546D4E90312636912
:10372000AD461E48C5F810A0C5E90501C5E9072347
:103730001948002342464FF42151FEF747FAB54697
:1037400088B0E3696D46164AA8464FF0030AC5E9FA
:10375000052348F810AF1048002342464FF4C251E9
:10376000FEF734FAB546A369AD460E4AC5F810A077
:10377000C5E905230848002342464FF4C251FEF72D
:1037800025FAB5462146484607F016FBBD46BDE87A
:10379000F08700BF95FB000000F00000C4FB0000B4
:1037A000F3FB000002FC000040B2002807DB044AE3
:1037B0004109012300F01F00834042F82130704787
:1037C00000E100E040B200280CDB4309064900F0AC
:1037D0001F0020330122824041F82320BFF34F8F86
:1037E000BFF36F8F704700BF00E100E0054B420957
:1037F00000F01F0053F82220012303FA00F01040CC
:10380000704700BF00E100E040B20028A8BF00F10F
:10381000604001F10101B8BF064B4FEA4111ACBF56
:1038200000F5614000F00F00C9B2B4BF195480F830
:103830000013704714ED00E030BFFFF7FDBF00BF7D
:103840000B4A08B50B4B22F07F029A60BFF34F8FF3
:10385000BFF36F8FD3F8882022F47002C3F888205A
:1038600007F066FB08F044FB00F0D6FB07F0A4FB72
:103870000000000000ED00E0094A0A499368096869
:10388000D967094998674B6843F080534B60002320
:1038900083F31188BFF36F8F9368D86F704700BFB1
:1038A000E8210020CCF4000000ED00E012498A6815
:1038B0004FF030001044EFF3098C80E8F01F202017
:1038C00080F31288BFF36F8F0C4F4FF000668A6948
:1038D0008A603E60906F0023936780F3118804B57F
:1038E000104600F035FCBDE8044002F1300090E8DD
:1038F000F01F8CF309887047E821002004ED00E0F8
:103900001EF0040F0CBFEFF30880EFF3098081690C
:1039100011F8021C0229FFD001B509F09EFE01BD7D
:1039200042F8203C009B42F81C3C0A49019B42F8AB
:10393000183C029B42F8143C21F001014FF08073C7
:1039400042F8043C42F8081C0023203A02658367D1
:10395000704700BF4BC90000094A0346906870B128
:1039600013F1160F806E05D0A0F140029A4205D8DF
:10397000834203D2814228BF002070470020704755
:10398000E821002008B5094B0D461446986000F068
:10399000DFFB204685F30988002163B681F3118897
:1039A000BFF36F8F0022002308F0CFFFE821002033
:1039B00001B572B60B4A506900281EBF0021516143
:1039C0000AF02AFD62B6EFF30580A0F110004FEA7D
:1039D000C0000549014409C99847BDE801400349B1
:1039E00008470000E8210020CCED0000F13900007C
:1039F000044B99689869884203D003494FF080527C
:103A00000A607047E821002004ED00E02DE9F04154
:103A100086B0064600AF0D46474B7B6102244FF44B
:103A2000825146483C6107F1100209F025FE444BE3
:103A30009B6AD9046DD5434B4048C7E9044307F15D
:103A400010024FF4825109F017FE17203C4B9B6A7D
:103A50001A050BD53C4B7B61022338483B6107F1CB
:103A600010024FF4825109F007FE1820344CA36A6B
:103A70009B0523D5E846354B7B6102232F483B61EC
:103A800007F110024FF4825109F0F6FDA36BA26A10
:103A9000100412D588B06A462D492848C2E905139A
:103AA000032342F8103F4FF4C25109F0E5FDC5462B
:103AB0001EB1A36A23F40043A3621920204B9B6A22
:103AC00059050BD5234B7B6102231C483B6107F151
:103AD00010024FF4825109F0CFFD1A20184B9A6A58
:103AE000D20518D51C4B7B61022314483B6107F1BA
:103AF00010024FF4825109F0BFFD1B20104A936A57
:103B000043F47F439362183700232B70BD46BDE812
:103B1000F08116209AE79B6A9B04EFD50F4B7B61DF
:103B2000022306483B6107F110024FF4825109F06D
:103B3000A3FD1C20E2E700BF30FC000000F0000005
:103B400000ED00E046FC000057FC00006AFC0000AD
:103B500083FC000098FC0000B3FC0000CBFC0000DC
:103B600010B586B0364B3748059304AA02244FF4AB
:103B70008251049409F080FD334B9B6A9A015DD514
:103B8000324B304804AA4FF48251CDE9044309F086
:103B900073FD1E202C4B9B6ADB010AD52C4B294858
:103BA000059304AA02234FF48251049309F064FDA3
:103BB0001F20254B9B6A1C030AD5264B21480593E1
:103BC00004AA02234FF48251049309F055FD2120E9
:103BD0001D4B9B6A59030AD51F4B1A48059304AA2B
:103BE00002234FF48251049309F046FD2220164B24
:103BF0009B6A9A030AD5194B1248059304AA02231B
:103C00004FF48251049309F037FD23200E4B9B6A39
:103C1000DB030AD5124B0B48059304AA02234FF489
:103C20008251049309F028FD2420074A936A6FEA21
:103C300003436FEA1343936206B010BD1D20A9E74A
:103C4000FAFC000000F0000000ED00E012FD0000B2
:103C500025FD00003FFD00005DFD000082FD00002D
:103C60009CFD00002DE9F04786B0814600AF8A46F2
:103C70009046514B7B61022450483C6107F1100291
:103C80004FF4825109F0F8FC4D4B9B6ADE0645D596
:103C90004C4B4A48C7E9044307F110024FF48251E4
:103CA000112409F0E9FC464B9B6A1D070BD5464BD6
:103CB0007B61022341483B6107F110024FF48251BE
:103CC000122409F0D9FC3E4DAB6A980728D56C4602
:103CD0003E4B7B6102233B614FF48251374807F131
:103CE000100209F0C9FC6E6BAB6A190660D588B08A
:103CF0006A46374B3148C2E90536032342F8103F84
:103D00004FF4C25109F0B8FCA546BAF1000F03D038
:103D1000AB6A23F08003AB62132403E01024C2E7F4
:103D20006FF01506264B9B6ADA070BD5294B7B6192
:103D3000022322483B6107F110024FF48251142400
:103D400009F09AFC1E4B9B6A9B060BD5224B7B61AC
:103D500002231A483B6107F110024FF482511524E7
:103D600009F08AFC164B9A6AD50602D49A6A900723
:103D70000AD55B68190507D549463046FFF7ECFDC3
:103D800010B180F3098802240D4B9A6A920642BF53
:103D90005A6A22F400525A629A6A42F0FF029A6208
:103DA00020460023183788F80030BD46BDE8F0876C
:103DB0006FF01506B0E700BFC7FD000000F000007F
:103DC00000ED00E0DDFD000057FC000010FE0000EB
:103DD00028FE00003EFE0000CBFC00002DE9F04371
:103DE000774B8BB0D3F8048000AF0546C8F30804C6
:103DF000002686F31188BFF36F8F02F07F43B3F183
:103E00007F4F0ED102F00C03082B19D16D4BFB61D3
:103E100002236D48BB6107F118024FF4825109F08B
:103E20002BFC002635460023FB71E31E092B00F214
:103E3000A680DFE803F00A999C95A4A4A4A4A49FFB
:103E400010074CBF0D460126EDE7E9465F4BFB61CD
:103E50004FF0020807F118025B48C7F818804FF4CA
:103E6000825109F009FC0023554CFB71E36A9A0763
:103E70000BD5574BC7E90683534807F118024FF497
:103E8000825109F0F9FB002441E0E36A002B01DADA
:103E9000504BEFE7E36A5B00F5D54F4B4A48C7E963
:103EA000068307F118024FF4825109F0E5FB6369BC
:103EB000AA6943F480736361BFF34F8FBFF36F8FC1
:103EC000636932F8022C23F480736361BFF34F8F70
:103ED000BFF36F8F4DF602739A4208D0A36ADBB22C
:103EE0008BB3FA1D01212846FFF7BCFE3AE088B0EB
:103EF0002B686A4639493448C2E90513032342F85E
:103F0000103F4FF4C25109F0B7FB2C68CD46FB7946
:103F1000ABB92022294607F1080009F0CAFB7B6AE9
:103F2000002E47D0C3F3080222B96FEA53236FEA89
:103F300043237B6207F108012046FFF7CFFB2C37B4
:103F4000BD46BDE8F083A36A13F47F4F04D0F91D8A
:103F50000120FFF75BFD05E0A36AB3F5803F92D334
:103F6000FFF7FEFD0446D2E7FA1D0021BBE7F91D6D
:103F70000020EEE71A4BFB610223BB617CE7194A84
:103F8000194B18F4F87FE8468AB018BF13466A4602
:103F900016490D48C2E905134FF400731384103C11
:103FA000134BD4614FF4115142F8103F09F064FBF8
:103FB000C54668E723F4FF7323F00103B9E700BFA8
:103FC00000ED00E08BFE000000F00000B6FE0000F7
:103FD000CDFE0000EEFE0000FCFE00001BFF000016
:103FE00037FF000072FE00005DFE00005BFF000076
:103FF00004000001024A536943F010035361704703
:1040000000ED00E0EFF30880EFF3098101B572469F
:10401000FFF7E4FE01BD00BF044800232021C218C1
:104020000133302B82F80013F9D1704700E100E032
:10403000002080F31488BFF36F8FFDF72FFB002063
:104040000D490860BFF34F8F0C4880F3088800F0DB
:104050002BF8202080F3118809484FF404614018A0
:1040600080F30988EFF314800221084380F3148859
:10407000BFF36F8FFFF7E4FB94ED00E000430020F7
:10408000403500200749D1F890200023C2F30722D1
:104090001846934200DB7047C1F89830C1F8A00081
:1040A0000133F6E700ED00E008B572B6002383F3B4
:1040B0001388FFF7E7FF144B4FF0FF32C3F880205F
:1040C000C3F88420C3F88820C3F88C20C3F890205C
:1040D000C3F89420C3F89820C3F89C20C3F880212B
:1040E000C3F88421C3F88821C3F88C21C3F8902138
:1040F000C3F89421C3F89821C3F89C2162B6BFF39A
:104100004F8FBFF36F8F08BD00E100E0084B9B6845
:1041100083420BD1EFF3058343B1064B5A6842F05B
:1041200080525A605A6A22F400425A6207F06EBE08
:10413000E821002000ED00E0024B034A0348012182
:1041400000F092B8000004200000002058F10000A8
:10415000826E054B403A1A60044A4021C3E90112BD
:104160001846012100F08AB86C13002000000B15DE
:104170002DE9F041DFF8B4E09C4600AF154600237E
:104180008B421ADA4468002C4DD0BCF1000F1DD0D0
:10419000661E344215D06C4688B06A462449C2E98E
:1041A0000513032342F8103F224800234FF4C25165
:1041B000FDF70CFD6FF01505A5462846BD46BDE888
:1041C000F0811F2CE7D902681642E4D1202C026846
:1041D00086685FFA85F814D9B4F1004F13D8013C12
:1041E000B4FA84F4C4F11F046400B8F1070F46EA7E
:1041F00004060AD96C4688B06A460F4BC2E90535F9
:10420000CFE70824F1E73E24EFE722F01F022A431C
:1042100042F0100246F00106CEF89850CEF89C20ED
:104220000135CEF8A06001330C30A9E700ED00E0C5
:1042300072FF0000F8EF000095FF0000044B05221C
:10424000C3F89420BFF34F8FBFF36F8F704700BF49
:1042500000ED00E0BFF35F8F024B0022C3F8942013
:10426000704700BF00ED00E010B5034C0123227839
:10427000FFF77EFF207010BD2424002008B5094AF6
:1042800000231278FFF774FF10F1160F03D0064BCE
:104290000022072800DD08BDC3F89800C3F8A0205D
:1042A0000130F6E72424002000ED00E014490868FE
:1042B000082810B521D8FFF7CDFF124C496800221D
:1042C000904201F10C0105D10F4B1870FFF7B6FFBA
:1042D000002010BDC4F8982051F80C3C23F01F03B7
:1042E000134343F01003C4F89C3051F8043C43F0EE
:1042F0000103C4F8A0300132E2E74FF0FF30E8E7F5
:1043000064F1000000ED00E024240020014B18605F
:10431000704700BF2C00002010B54FF02003EFF3D2
:10432000118083F31288BFF36F8F114A0123C2F803
:1043300040354FF080424FF08051C2F87835D1F8C7
:104340003041082C08D1D1F83411052904D8094C82
:10435000615C09B1C2F838364FF080430122C3F8DE
:10436000802580F31188BFF36F8F002010BD00BF40
:1043700000E00140CAFF00004FF08043C0B2C3F824
:104380001C05BFF34F8F0549054BCA6802F4E06274
:104390001343CB60BFF34F8F00BFFDE700ED00E09C
:1043A0000400FA0520B1034B800143F001031847D4
:1043B000704700BF80F00000020600F07F0312D5B6
:1043C000082B05D1010700F00F0306D50E487047F2
:1043D00010F0780F12D100F00F034C2000EB4310C7
:1043E0000A4B18447047082B05D1020700F00F0351
:1043F00006D50748704710F0780FF6D000207047B8
:10440000044800EB43107047C414002078130020C8
:10441000E4150020E4140020014902480AF0CEB857
:10442000A013002078090020014601480AF07CB85A
:104430009403002002480022002306F0F9BF00BFC9
:104440009403002010B5054CFFF7F4FF20B1011DC7
:10445000204609F0ABFFF7E710BD00BFE8020020DF
:1044600010B588B018480022002301A906F026FEE6
:1044700030B3164B1648079306AA4FF48251022414
:10448000069409F052F9FFF7DDFF0F4800220023E0
:1044900001A906F013FE50B10E4B0D4806AA4FF4C9
:1044A0008251CDE9064309F040F900200AE0019865
:1044B000042340600374FFF7B7FFFFF7ADFFF4E795
:1044C0000198406008B010BDE8020020D4FF000051
:1044D00050F00000F2FF000098B5022800AF11D89C
:1044E000104B1C5CFFF7BCFF50B100220274047239
:1044F000FFF79AFF0C4B93F824300BB1FFF78CFFBA
:10450000BD4698BD6C4688B06A46084BC2E9053086
:10451000032342F8103F06484FF4C25109F005F951
:10452000A546EDE7E4010100781300200E0001002C
:1045300050F000002DE9F04190F80280064600AFEF
:104540004046FFF739FF18F0800FF478054625D074
:104550009CB1032C1FD06D4688B06A462A4BC2F826
:104560001C80C2E90534042342F8103F27484FF469
:10457000015109F0DAF8AD460DE0FFF771FF03468F
:1045800048B10122AC770274032202739D60FFF7E9
:104590004BFFFFF741FFBD46BDE8F08154B1012C50
:1045A000D9D1FFF75DFF03460028F4D06C7704747F
:1045B0000473EBE7FFF754FF0028ECD0B278144BFC
:1045C00012F0800F02F0080111D041B1D3F8A836E3
:1045D000EB6001230374022303738560D7E702F0C5
:1045E0000F02142101FB0233D3F80836F0E711B1B2
:1045F000D3F8A837ECE702F00F02142101FB0233D5
:10460000D3F80837E4E700BF2900010050F00000AC
:104610000070024013B5124805F0BCFE114B9842E1
:104620001AD1114804F04AFF0024104804F08CFF0E
:104630000F49104800944FF0FF334FF4806207F0A9
:10464000B1F80D490B4809F0E0FE0C480C4909F09F
:1046500098FF204602B010BD6FF00400FAE700BFDB
:10466000C54600000000AD0BE701010084F1000029
:10467000003100207809002055000100A01300201F
:104680009D48000010B50E49BFF35B8F002351E831
:10469000002F012A03D141E800300028F7D1BFF3F1
:1046A0005B8F0CD151F8044C1439204608F017FCEC
:1046B000783004D12046BDE8104008F0EBBB10BDB7
:1046C000981300202DE9F04188B0064600AF14226F
:1046D000002107F10C0008F0F7FF3378013B052BB0
:1046E00021D8DFE803F09B0313138D1503233B75DB
:1046F0000024FFF7B5FE0346A8B1047400F10802D8
:10470000D7E9050182E80300184634E00423EEE708
:1047100096F802804046FFF74FFE837A054633B194
:10472000013B022B68D92037BD46BDE8F08118F067
:10473000800FF47824D09CB1032CF4D06D4688B05F
:104740006A46374BC2F81C80C2E90534042342F89C
:10475000103F34484FF4015108F0E7FFAD46E2E75F
:10476000FFF77EFE03460028DDD00122AC770274FD
:10477000032202739D60FFF757FEFFF74DFED2E75D
:1047800054B1012CDAD1FFF76BFE03460028CAD0E2
:104790006C7704740473EDE7FFF762FE04460028AB
:1047A000C1D001230374022303738560B07805F13F
:1047B0000C0109F092FD70B16E4688B06A461A4B42
:1047C000C2E90530032342F8103F16484FF4C251A6
:1047D00008F0ABFFB546154AE968B2F88C328B4257
:1047E00006D95B1AA2F88C3206F010F82046C2E710
:1047F0000023A2F88C32F9E73046FFF79BFE92E7E0
:10480000381D05F0DDFF7B79052B03D13B7913F0D3
:10481000600F88D0064B7B6101246AE7022468E7B9
:104820002900010050F00000600001007813002012
:10483000E414002038B5002464F07F00C0B2FFF714
:10484000BBFD013408F05EFF082CF5D10E4D0024AD
:10485000E0B2FFF7B1FD036903B90561013408F067
:1048600051FF082C05F14005F2D1084808F04AFF35
:10487000074BD3F87C2212B9064AC3F87C220648BB
:1048800008F040FF002038BD081A0020C4140020A2
:104890007813002008160020E41500202DE9F047C9
:1048A000A34CDFF890A286B0804600AFFFF7C2FDB0
:1048B000064618B91837BD46BDE8F08794F825209C
:1048C000337C06F104093AB9002B00F0AF80994817
:1048D000494609F06BFDE9E7042B00F29581DFE81A
:1048E00013F0A50005003B015101780118F8043CC4
:1048F00083B9B3686D4688B05B7A6A468E498F4843
:10490000C2E90513032342F8103F4FF4C25108F0E7
:104910000CFFAD46337BB568032B39D8DFE803F0D5
:10492000023F6E736E6908220021304608F0CCFE0B
:10493000834B8448D3F880243270D3F88424727077
:10494000D3F88824D3F88C1442EA01227280D3F879
:104950009024D3F8941442EA0122B280D3F8982428
:10496000D3F89C3442EA03230822F3803146EA60FC
:1049700008F09FFE2B68687A0021984796F900306E
:10498000002B08DBF38833B1A4F88C3205F03EFF2E
:10499000494650469DE70023A4F88C32F8E76B7F28
:1049A000002BF5D02B7F002BF2D0002666486E77C7
:1049B0004FF0FF324FF0FF332E7708F0B9FE6B69EE
:1049C0003B606B68C7E901363946687A05F024FD1B
:1049D0005E4B98420ED06D4688B06A465C4BC2E989
:1049E0000530032342F8103F54484FF4C25108F0F9
:1049F0009CFEAD46544808F09DFEC9E72B68012196
:104A0000687A9847C4E7AB7A6BB9EB7F5BB94E48DD
:104A10004FF0FF324FF0FF3308F08AFE05F026FF1B
:104A2000494808F087FE2B680221E9E7337A042B16
:104A3000AED8DFE803F059032367730005F074FC78
:104A400005460028A4D105F0ABFBBFF35B8F4149BD
:104A5000012351E8002F002A03D141E8003000284B
:104A6000F7D1BFF35B8F93D141F8085C41F8105C3C
:104A7000E0696361143908F0B5F989E7002565F04C
:104A80007F00C0B2FFF798FC037A13B1407A06F0BA
:104A90009DF80135082DF2D194F854311BB194F8EA
:104AA000550106F093F80025E8B2FFF785FC037A7C
:104AB00013B1407A06F08AF80135082DF4D194F844
:104AC00074321BB194F8750206F080F8012005F0ED
:104AD0000DFC012384F825302368002B3FF458AFE8
:104AE00000210220984753E7002584F8255006F05E
:104AF00029F8FFF7C7FD2368002B3FF449AF29468B
:104B00000420EFE7002A3FF443AF05F017FC2368C9
:104B1000002B3FF43DAF00210520E3E72368002B85
:104B20003FF436AF002A3FF433AF00210620D9E727
:104B300078130020E80200208000010050F00000FF
:104B4000007002407C130020B01300200000AD0B69
:104B5000A60001009813002008F110054FF0FF3364
:104B60004FF0FF32284608F0E3FDFFF763FE2846CA
:104B700008F0E0FD58F8283C002B3FF409AF002175
:104B80000120AFE794F8743293B1012584F889527B
:104B900084F88852FFF764FC90B9234B7B610223B1
:104BA00022483B6107F110024FF4825108F0BDFD2D
:104BB00058F8283C002B3FF4EBAE00210A2091E787
:104BC0001B4A057405738260FFF72EFCFFF724FC77
:104BD000EEE7184B7B6102233B6107F110024FF4B3
:104BE0008251124808F0A1FD09F059FA05F0AAFF18
:104BF00005F0CCFAFFF726FCFFF71CFE09F048FA97
:104C00000D4805F0C7FBC3E66D4688B06A460B4900
:104C10000648C2E90513032342F8103F4FF4C2517E
:104C200008F083FDAD46B3E6CC00010050F0000073
:104C3000E4150020E0000100C5460000F700010077
:104C400038B5164D95F824402CBB05F1380009F015
:104C5000F2FB204600F0C2FB22460121E86127203A
:104C6000FEF7D2FD09F014FAFFF7E4FD044610B98F
:104C7000012385F824300A4B1B680BB1FFF7CCFBEE
:104C80004FF08043D3F83834DB0702D50020FFF71C
:104C900023FC204638BD0024FBE700BF781300202A
:104CA00094030020074B93F824203AB193F8253061
:104CB000002B14BF00206FF0120070476FF012003D
:104CC000704700BF781300207FB5034602781B7938
:104CD00002F00F007BB958B1104B059302230493E7
:104CE00004AA4FF482510E4808F01FFD4FF0FF3028
:104CF00007B05DF804FB082801D90A4BEDE7012B4A
:104D000009D1130707D4084B05930223049304AA7F
:104D10004FF48451E7E70020EAE700BF0E010100ED
:104D200050F000002D0101004C01010030B5164B80
:104D300093F8243087B004461BB305782846FFF764
:104D40003BFBB0B14572237983726388436020785E
:104D5000618810F0080F10D14B1E0B420DD00B4B89
:104D600005930B48022304AA4FF48251049308F0E0
:104D7000DCFC6FF0150007B030BD09F0A9FA002087
:104D8000F9E76FF01200F6E77813002062010100E6
:104D900050F0000030B5194B93F8242087B0054639
:104DA00042B393F825302BB3FFF706FB044618B93E
:104DB0006FF0150007B030BD837A012B0FD007D9F3
:104DC000023B012B07D96369A3610020E060F1E792
:104DD00005F054FDF7E7284605F0C4FCF3E7084B5F
:104DE00005930848022304AA4FF48251049308F063
:104DF0009CFCDDE76FF01200DCE700BF78130020B9
:104E00008A01010050F0000038B50E4B93F82420C1
:104E1000054682B193F825306BB1FFF7CDFA68B142
:104E200015F008040AD1284605F0BEFC284605F016
:104E300021FF204638BD6FF01200FBE76FF0150030
:104E4000F8E700BF7813002038B50C4B93F8242006
:104E500005460C4662B193F825304BB1FFF7ACFA2A
:104E600048B144B1284605F085FC2070002038BDCB
:104E70006FF01200FBE76FF01500F8E778130020E1
:104E800070B5134E96F824300446C3B1FFF794FA78
:104E90000546B8B1230705D4204605F085FC204619
:104EA00005F0E8FE2B7A83B901232B7296F82530A2
:104EB0000BB9002070BD204605F088FEF9E76FF0C1
:104EC0001200F7E76FF01500F4E76FF07700F1E7F5
:104ED000781300202DE9F047DFF8249184B01E46B6
:104EE00099F8243000AF80468A461546002B00F022
:104EF000838099F82530002B7ED010F0800F14D0DD
:104F0000FFF75AFA044680B1037AABB96C4688B011
:104F10006A463C4B3C48C2E90538032342F8103F3F
:104F20004FF4C25108F001FCA5466FF0150420466D
:104F30001037BD46BDE8F0874FF0FF334FF0FF322A
:104F400009F1380008F0F4FBA37F33B109F1380010
:104F500008F0F0FB6FF00A04E9E7A37A55B3002BE1
:104F600038D00123A3774FF00009391D4046C7E927
:104F700001A5C7F80C9005F04FFA244B984237D0A2
:104F800084F81E900EB1C6F800906C4688B06A4650
:104F90001F4BC2E90530032342F8103F1A484FF473
:104FA000C25108F0C2FBA5466FF00404194808F08E
:104FB000C1FBBCE7E27F02B1E577002BD1D105F060
:104FC00065FC8045CDD005F051FC124808F0B2FBDD
:104FD0000024ACE7B9F80A309D42F0D26268B5FB14
:104FE000F2F302FB1353002BE9D10123E377E6E749
:104FF00006B135600024D9E76FF0120497E700BFCF
:1050000078130020AC01010050F000000000AD0B4F
:10501000CB010100B01300202DE9F8431D462D4BB4
:10502000904693F8242000AF81460E46002A4DD0CA
:1050300093F82530002B49D010F0800F19D111B909
:10504000B8F1000F15D14846FFF7B6F9044680B114
:10505000037A8BB96C4688B06A461F4B1F48C2E979
:105060000539032342F8103F4FF4C25108F05DFBAD
:10507000A5466FF0150015E04FF0FF3318484FF0CC
:10508000FF3208F055FBE3689845C14628BF9946B2
:105090005EB9B8F1000F08D105B12B60104808F0D7
:1050A00049FB0020BD46BDE8F883A1694A46304669
:1050B00008F0FFFAA3694B44A361E368A3EB09037B
:1050C000E360002DEAD0C5F80090E7E76FF012002A
:1050D000E8E700BF78130020AC01010050F00000A9
:1050E000B0130020F8B5274D95F8243000AF0646E0
:1050F000002B44D095F82530002B40D0030614D463
:10510000FFF75AF9044680B1037A93B96C4688B028
:105110006A461D4B1D48C2E90536032342F8103F7D
:105120004FF4C25108F001FBA5466FF01500BD46D3
:10513000F8BD4FF0FF334FF0FF3205F1380008F0B3
:10514000F7FAE368B3B9012663692677A361637F41
:1051500083B1FFF785F930B905F1380008F0EAFAB4
:105160006FF00B00E3E7067484600673FFF75CF9E9
:10517000FFF752F9064808F0DDFA0020D7E76FF094
:105180001200D4E778130020AC01010050F00000B9
:10519000B013002010B5084B93F824300C462BB107
:1051A000FFF70AF928B10460002010BD6FF012006B
:1051B000FBE76FF01500F8E778130020014B18604B
:1051C000704700BF7813002008B5074B93F82430D0
:1051D00023B1FFF7F1F820B1406808BD6FF012006D
:1051E000FBE76FF01500F8E778130020084B70B567
:1051F000C31A0D4607499B100446594306484022EE
:1052000008F0DEFA2B4601462046BDE870401847FC
:105210001C1C0020B76DDBB624ED000073B50C4CF0
:105220000C4A4023041B00930D460B460A49A41068
:1052300061430646094808F0EFFA011E05DA3046D8
:105240002B4602B0BDE87040184702B070BD00BFE9
:105250001C1C002083D80000B76DDBB624ED0000D5
:10526000002270B5012104461046FEF7CDFA0F4822
:1052700003F066FD0E4B984215D103F071FD2669CF
:105280000C49304607F09BFD00280BDB01253564F7
:105290002469084904F11C0007F091FD002801DB96
:1052A000E564002070BD6FF00400FBE7ED520000E4
:1052B0000000AD0B88F1000070B501460C230948D1
:1052C0004B43C418D4E90E56403300221844A2635D
:1052D00008F063FA2DB132462B460348BDE8704012
:1052E000184770BD1C1C002024ED000010B10128DF
:1052F00004D07047034B1B6C5B0701D1FFF7DCBF89
:10530000704700BF1C1C002008B54FF02003EFF3CE
:10531000118183F31288BFF36F8F124A136843F031
:1053200002001060DA0708D481F31188BFF36F8F91
:105330000120BDE8084008F009BE4FF08043D3F8D3
:105340000C24D3F80C34D307EED5074808F025FA1F
:1053500081F31188BFF36F8F0020BDE80840FFF78D
:10536000ABBF00BF6C1C00205C1C00207FB500227E
:105370000123CDE9022304ABCDE90433094ACDF87A
:1053800000D06B46CDF804D008F074FA002805DB95
:105390004FF480420023684606F0A4F807B05DF899
:1053A00004FB00BFA1D8000010B54FF02003EFF3BD
:1053B000118483F31288BFF36F8F074A136823F0B9
:1053C0000201DB07116002D4012008F0FBFD84F329
:1053D0001188BFF36F8F10BD6C1C0020024AC3B24E
:1053E0001C2003FB002070471C1C00202DE9F0410D
:1053F0003849BFF35B8F0746012251E8003F41E87F
:1054000000200028F9D1BFF35B8F33B9324933480C
:105410004B60CB608A6007F0E5FC7B1E012B2BD82C
:10542000012F07D14FF08043D3F81C3403F003035E
:10543000012B21D008F0E3FF0546F8B9284B1B7873
:10544000E3B14FF080430222C3F808230646DFF899
:1054500094804FF08044D4F81834D4F81824D20340
:1054600016D503F00303012B01D0012F10D15DB33A
:1054700086F31188BFF36F8FBDE8F0814FF02003F2
:10548000EFF3118683F31288BFF36F8F0125DEE7F8
:10549000ADB13046FEF716F9D4F81835002BDAD145
:1054A000D4F80421002AD6D0C4F80431D4F8043149
:1054B0000123C4F81835C8F88031A360CBE7002178
:1054C000212006F069FCE7E74FF080430222C3F891
:1054D0000423D1E7181C0020081C0020381C0020E1
:1054E0004529002000E100E008B5074808F02BFF3F
:1054F00038B10648FEF70AFF0448FBF7DBFB002043
:1055000008BD6FF01200FBE76CED000011550000C4
:105510000A2838B5074D044604D1AB680D215B68F5
:1055200028469847AB6803485B68E1B29847204635
:1055300038BD00BF6CED000030B54068057B01F060
:105540001F04B2F5001F85B044EA451405D120467A
:1055500003F08AFE002005B030BD0025B2F5800FB3
:10556000CDE9025514D1B3F1007F0CBF042305230C
:105570008DF808300023194602AA204603F0B2FC39
:105580001F4B984239D10121204603F025FEE1E767
:10559000B3F1C06F26D0B3F1007F14BF0123022303
:1055A0008DF808308368CB40D907E3D4B2F1A07FEF
:1055B000E0D16209012A04F01F03124A03F5E073E7
:1055C00018BF4FF0A04252F82330DB07D2D40DF1C0
:1055D00007052946204603F0ABFD0B4B984203D04C
:1055E0000395C7E70323DBE7284603F0EFFD044BF1
:1055F0009842F5D06FF00B00ADE76FF01500AAE709
:105600000000AD0B000300500400AD0B10B503F01B
:10561000CDFD044668B903F0A1FD084B98420AD1BC
:105620000748214603F07EFD224605210620FEF7AD
:10563000EBF8002010BD6FF00400FBE70000AD0B9D
:1056400045560000420970B5034602D0012A17D022
:1056500070BD0D4E326951680029F9D003F01F0367
:1056600001250C689D400029F2D08A682A4002D0AA
:105670004B68304698472CB1236821461C46F2E718
:10568000024EE7E72346F8E754ED00003CED00004A
:105690002DE9FF4147683B7B01F01F0545EA4315B3
:1056A0000E4628460DF10301144603F041FD14F4A3
:1056B000403F80460BD1284603F0FEFD3D4B984508
:1056C00003D19DF8030003F07BFD00200CE00023D4
:1056D000194602AA2846CDE9023303F003FC354BF4
:1056E000984204D06FF0150004B0BDE8F081804509
:1056F00003D19DF8030003F063FDA3034BD540F2F3
:1057000006332340B3F5837F19D00CD8062B17D06E
:1057100004D8ABB1022BE5D1042311E0B3F5807FAF
:10572000E0D101230CE040F20222934227D0B3F5EE
:10573000407F26D0B3F5007FD4D1022300E00723B9
:105740008DF8043084F48033C3F30043E0068DF811
:10575000053054BFC4F34013032321038DF80630F2
:1057600011D57A680123B340C2F80835002201A997
:10577000284603F065FC0F4B9842A6D0B2E70523FC
:10578000DEE70323DCE7620341BF01237A68B3400D
:10579000C2F80C35EAE7E3064FF0000354BFC4F348
:1057A000401403241A4601A928468DF8044003F04A
:1057B00099FBE0E70000AD0B014805F0EDBF00BF2D
:1057C0003000002008B508F0D9F8024B1B68C01A59
:1057D00008BD00BF881C0020014809F07DB800BF4B
:1057E000B002002007B5014640F2E7304FF47A726C
:1057F000002300EBC130490CFAF782FC02460B464D
:1058000000210020CDE90001024806F03DFD03B073
:105810005DF804FBB002002008B508F0AFF8014BBA
:10582000186008BD881C0020014B1868704700BF35
:10583000881C00202DE9F347274C9A46D4E90193B0
:1058400007460D4616467BB1244B00205B6B9847FC
:10585000CDF800A0D4F80880206833462A4639469F
:10586000C04702B0BDE8F08704F140020223BFF355
:105870005B8F52E8001F012903D142E80030002865
:10588000F7D1BFF35B8F9046EBD1A36C1A78AA4295
:1058900088BF1D70A36C606C1A78394607F009FF49
:1058A000E36C03B11E80236D0BB183F800A00B4B9A
:1058B000DB6A984700216160BFF35B8F58E8003FC7
:1058C00048E80012002AF9D1BFF35B8F484602B0C6
:1058D000BDE8F04706F064BD8C1C002024F20000F7
:1058E00010B5124CBFF35B8F022354E8002F012A3E
:1058F00003D144E800310029F7D1BFF35B8F0CBF1F
:105900000120002010D10A4BDB6A9847002344F89D
:105910003C3CBFF35B8F54E8002F44E80031002982
:10592000F9D1BFF35B8F012010BD00BFCC1C00205C
:1059300024F2000010B5064B5C68FFF7D1FF30B1D0
:105940002CB100212046BDE8104006F029BD10BD55
:105950008C1C0020F8B5044600AF00680D4608F026
:10596000F2FC03462068BBB96C4688B001686A4601
:105970002748C2E905014FF400719183254942F897
:10598000101F25484FF4E251FCF720F96FF0120583
:10599000A5462846BD46F8BDE38821792B43DD02A4
:1059A000D0F808E0D0F810C006D513F4402F03D08B
:1059B000DA0748BF83F44023DCF80050012623F4C3
:1059C00080128E40DB074CBF3543B543CCF8005006
:1059D000DEF80030984705460028DAD023681968B9
:1059E00023796C468AB06A460C48C2E907354FF401
:1059F000007393840A4BC2E9050142F8103F064840
:105A000000234FF43151FCF7E1F8A546C1E700BF90
:105A1000360201000300000130F000004F020100D7
:105A20000500000170B50D460F49BFF35B8F0120E3
:105A300051E8004F002C03D141E80006002EF7D1B9
:105A4000BFF35B8F0CD1094E41F83C3CD4B2736D6F
:105A5000214698472846B36A21469847002070BDE2
:105A60006FF00F00FBE700BFCC1C002024F2000009
:105A70002DE9F04F95B0002504AF3C1DDFF8F09004
:105A800082468B4690462946102207F114000126D3
:105A9000C7E90144C7E9035507F016FE87F82160FE
:105AA000D9F830307C62002B5ED0234642465946FE
:105AB0005046FFF7B7FF041E51DB5FFA88F099F8F4
:105AC000363099F8352099F834102A4C0396CDE9F0
:105AD0000150B9F838000090646A3046A047E946A2
